:020000040800F2
:10000000000400201D73010851BA00082D5D01088D
:1000100095730108957301089573010800000000AD
:1000200000000000000000000000000075BF000894
:1000300071BF0008000000006DBF0008C911010871
:10004000957301089573010895730108957301086C
:100050009573010895730108651301087913010868
:1000600075130108711301086D13010895730108D8
:1000700095730108957301082520010895730108FF
:10008000957301089573010895730108957301082C
:1000900095730108957301089573010869130108A8
:1000A000011D0108957301089573010895730108F6
:1000B000451D0108351D0108957301088588000854
:1000C000898800087D8800088188000895730108E8
:1000D00095730108C52001089573010819200108CE
:1000E000611301089573010879BF00089573010831
:1000F000211D010895730108111D01089573010860
:100100009573010895730108251D01089573010871
:10011000957301089573010895730108957301089B
:10012000957301089573010895730108957301088B
:10013000957301089573010895730108957301087B
:1001400095730108957301089573010855BA000865
:10015000957301088D1F0108D1200108811F010836
:10016000758800087988000895730108957301085F
:10017000957301089573010895730108957301083B
:1001800095730108957301082DE9F04F2DED0E8B45
:100190009BB010F0FBFF6B4B1B6842F20F72C01A52
:1001A000904204D81BB0BDEC0E8BBDE8F08F664FBB
:1001B0003B78082B00F2C280644A342101FB032300
:1001C000D3F82880624C634E634D0DF14C0B09E06F
:1001D00010F0DCFF33682A68C3EB0803184464326C
:1001E000904206D2E368584698479DF84C30002B61
:1001F000EED010F0CBFF594B9FED597AD3ED007A3A
:10020000584B58491A68584B584D0860F8EE677AB1
:10021000801A67EE877AC3ED007A554B188028461E
:100220006368984700284FD1524B1B689B0714D432
:10023000514B00221A805A809A804A4A7B7892F861
:1002400080214149474D9A4200F0A68001334B700E
:100250001BB0BDEC0E8BBDE8F08F484B1B78002B1C
:10026000E6D010F093FFDFF824913E4B59F8048C50
:10027000D3F8CC30404E49F8080CA9F1D402C31A87
:100280004246DFF80CA108EE903AC846B31D11466D
:100290000878002800F0E882324A92F84021002ACB
:1002A00041F06C808846924609EB0A019FED340AC2
:1002B0002C4E0AF1240A0DF0E5FDBAF16C0F00F0A6
:1002C000498598F80000EFE7264B29461A79284619
:1002D0000CF0E6FC234B5E79EEB19B79002B40F0ED
:1002E00093821D4B1B68B3B11E4B4FF0010803F105
:1002F00008094346B0461E4649469FED220A40463D
:100300000DF0C0FD174B5E670136042E09F124097C
:10031000F2D101229A71DFF87C90B9F80000002830
:1003200041F06E80114918488E1D0B8830F8022B61
:100330009B1A21F8023B8E42F7D175E74FF0000877
:1003400040E700BFFC19002000040020340D00200D
:10035000D04500209047002078190020E424002098
:10036000BD378635B0110020D4240020301900207C
:10037000F0180020F4180020B0480020E0480020C9
:1003800000007A4400000000741200208412002053
:1003900028190020CC1A002001234B7010F0F6FE23
:1003A000D5F88411BC4ABD4BC5F88401401A1B68BE
:1003B0005080BB4A08931E46B2F906905B89994566
:1003C000C0F22082B9F5FA6F81F2ED82F179C3EBC8
:1003D000090202FB01F2A3F5FA6392FBF3F303F1C6
:1003E0006405B04BAF4893F95E21AF4BB0F896C1AE
:1003F000AE481B68AE490068049003F08073504219
:10040000DFF8F0829FEDAB4ADFEDAB4A0C9192B280
:100410000D900E9206938E46002640F2E63AB7EE15
:10042000005A9F4B33F91620CCEB020303F2F31171
:10043000514500F29384002BB8BF5B42022E02F0BC
:10044000DB80049991F8191119B19942B4BF5B1A74
:1004500000230699002900F0AE870899497807EE35
:10046000903A06EE901AB8EEE77AF8EE666AC7EEB2
:10047000047AC6EEA45A27EEA76A75EE656A26EEE0
:10048000276A66EEA77AE5EE867A27EE877AFDEE92
:10049000C77A17EE903AAEF80030624508F8065079
:1004A00004DABEF800305B42AEF800300136032EAD
:1004B0000EF1020EB5D17B4BB3F898118945C1F20C
:1004C000B480B9F5FA6FD4BFC1EB0909C1F5FA6977
:1004D0004FF47A7202FB09F27248784DB0F89A0133
:1004E000774B07EE100AC1F5FA60B2FBF0F085FB1E
:1004F0000026C217C2EB6612561C6FF0630733F971
:10050000166033F812300FFA83FE07FB0202CEEBBF
:10051000060602FB06F285FB0205D217C2EB651246
:1005200013449BB21AB206EE902A07EE901AB8EE68
:10053000477AF8EE677AF8EEE66A5D4A76EEE76AA1
:1005400077EE677AD38086EEA77A0023B5EEC07A7D
:10055000F1EE10FA00F12587DFED577A594BB4EE32
:10056000E77AF1EE10FA01F32482DFED577A83ED9A
:10057000007AB4EEE77AF1EE10FA41F38C85534B32
:100580000D931B7813F0040F514B0E9300F00F875F
:100590001B68DFF864A19B0001F1B8854D4B1B88F7
:1005A0005F0601F1B5813F4B93F89C31002B41F080
:1005B00021813C4B93F89D3123B1464A128856065F
:1005C00041F186840D9B41491B785D0701F16A80EA
:1005D0000E9A1268D007404A12785CBF43F00103BC
:1005E0000B70110703D40D9A03F0FE0313703B4AFE
:1005F00012881AB13A4A1268920704D4394A12880A
:10060000002A00F0CF87384A0D9823F00103022119
:100610000370117010F0BAFD344B1B68C01A00282B
:1006200001DB15F039FEA3680BB1314898479AF801
:100630000030B3B11A4B1B49B3F90620194BB3F87C
:1006400098319A420DDC4B79012B01F01885192B5A
:1006500001F015850E2B04D0082B02D0144A00237C
:100660009380124B1D6895F820611F4626B1194BE7
:100670001B889B0741F0B284194B1B689E063DD531
:10068000144B1B8803F03003C3B3134B1B78D807FC
:1006900001F1468532E000BFF01900207C190020EE
:1006A00080440020F83C00207848002048190020B1
:1006B000C02400200000FA430000C8421F85EB510F
:1006C000E8220020E4450020CDCCCC3D00190020DC
:1006D000FC180020F818002080190020D21A0020F1
:1006E000F4180020CC1A0020A8480020AC480020B4
:1006F000EC1B0020C82400202C0D00204F4B1B7841
:1007000023B14F4B1B78002B01F07B844D4B4E489F
:1007100019684E4B0668B3F86C2103F5C473009357
:10072000284605F16003B047494A4A4B1278DB7806
:100730000A92032A0F9307D9474BD3F8D8315B8825
:10074000B3F5FA7FC1F035840E9B1D68434B290138
:10075000186840F1AD870A9B002B01F0EB853E4BFA
:100760003F4AD3F8D831B2F9025093F90010B2F9E8
:100770000430B2F90020494203FB01F105EE105AA2
:1007800005EE902A07EE901A364A0A9B00F4805C28
:100790000027B8EEE76AB8EEC55AF8EEE55A02EB64
:1007A00003183D46584666460AE0F445C8BF1F4652
:1007B00041F3A8861032424500F1020000F0D282D7
:1007C000D2ED017AD2ED026A92ED037A65EEA77A54
:1007D000E6EE857AE7EE067AFDEEE77ACDED047A6D
:1007E000BDF8103019B21EB101EBD173C3F34F0342
:1007F00029B20FFA83FE714503800FFA87FCD4DA21
:100800001D46D7E76425ECE5134BA84603F108091C
:100810000026B8F9003000EE103A4846B8EEC00A9B
:100820000DF008FB18F04CFF01360B4B28F8020BBB
:10083000032E09F124095E67EBD16CE51B0400204F
:10084000E82400207C1900201C040020F83C002033
:100850003428002084480020B0110020784800206F
:10086000042500208C1300203288AAF800200236CC
:100870009E4208F124080AF1020A7FF409AD884675
:10088000E44BE54A1B68B2F800A0B2F802909088E9
:100890001E0740F1B986BAF1000F00F0B586B9F134
:1008A000000F00F0B186002800F0AE86DB4A069209
:1008B0009FEDDB8ADB4A049200260123B5F9022072
:1008C000DFEDD95A07EE102AD84AD2ED517AB5F9A0
:1008D0000020B8EEC77A06EE102A67EE279AB5F91F
:1008E0000420B8EEC66A06EE902A26EE27AA29EE64
:1008F000A90AF8EEE66AAAEE0A0ACD4A66EEA7AAA7
:10090000B2F90020AAEEAA0A0BEE102AF1EEC0DA24
:10091000C74AB2F902200CEE102AC54AB2F90420E7
:10092000B8EE689A0BEE902AF4EE6DDAF1EE10FA5A
:1009300029EE259AB8EECBBAB8EECCCAF8EEEBBAEF
:1009400041F02A86002E01F02A80DFEDBA7AB4EE5B
:10095000E78AF1EE10FA08DD9FEDB77A38EE478AA4
:10096000B4EEE78AF1EE10FAF8DCDFEDB47AB4EE1B
:10097000E78AF1EE10FA08D59FEDAF7A38EE078AD4
:10098000B4EEE78AF1EE10FAF8D4B6EE000A28EEDB
:10099000000A0A9008930DF06DFD9FEDA1DA089B07
:1009A0000A9830EE0DDAF3B10FFA8AFA07EE90AA40
:1009B0000FFA89F907EE109AF8EEE7CAB8EEC78A7F
:1009C0006CEEAC7A00B207EE100AE8EE087AB8EEE8
:1009D000C7EA9FED9B7AEEEE0E7AF4EEC77AF1EE5F
:1009E00010FA01F34B849FED8E8A964DF0EE48CAC3
:1009F0006CEE0C5ADFED927AEBEE0B5AEBEEAB5A43
:100A0000F4EEE75AF1EE10FA01F3BF80D8ED017A67
:100A1000DFED835AF4EEE57AF1EE10FA41F3298224
:100A20009FED897AF4EEC7DAF1EE10FA01F1218038
:100A30007E4B93ED526A93ED537AD3ED546A834B18
:100A40000D931B78D8ED027A590741F1CA80B7EEB1
:100A5000005A27EE855AF6EE005AEDEE056ADFF8E9
:100A600000A27B4B9AED004AD3ED003A794ADFF8B9
:100A7000F49192ED003AD9ED004AACEE856AA8EE09
:100A8000057A69EE255A76EEAA6A36EE0A6A66EEAD
:100A9000A56A37EE297A26EE256A26EE845A67EE95
:100AA000257AA6EE235A64EE675AA7EEE45AE3EEDF
:100AB000465A23EE667AE6EEE45AA7EEA37A35EEBE
:100AC000035A67EE837A25EE050A75EEA35AE6EE21
:100AD000A37AA6EE247AF0EE406AE5EEA56A37EE38
:100AE000047AE6EE447AE7EE076A77EEA47A82EDBE
:100AF000005AE7EEA76AC3ED005AB1EEE60A8AEDA6
:100B0000007AB4EE400AF1EE10FAC9ED007A41F035
:100B1000AD85B7EE007AC7EE007A424E92ED006ADC
:100B200099ED007AD3ED005ADAED006A9FED4A8A1A
:100B300065EEA75A26EE276A66EEA76A67EE277A61
:100B400082ED006AC3ED005ACAED006AC9ED007A71
:100B500010F05AFED5ED080A95ED070A18F0A0FE30
:100B600020EE080A18F0ACFD95ED060A049BB1EEE4
:100B7000400A188018F036FEDFED387A37EEC00AEA
:100B800020EE080A18F09CFD049BD5ED000A95EDB7
:100B9000030A588018F084FE244BD3ED557AE0EE1A
:100BA000487AB0EE670A18F08BFD83B21A0458BF7A
:100BB000B3801E4B95ED086AD3ED567A069A95EDF3
:100BC000048A137895ED033A95ED010AD5ED073ABD
:100BD00095ED054AD5ED004A95ED065AD5ED025A38
:100BE00048BF00F56160B4EEE76A48BFB080F1EE3F
:100BF00010FACCBF43F0080323F0080313700C4B2A
:100C0000B3F9023007EE903A094BB3F90030F8EE31
:100C1000E77A29E0F4180020001A0020801900204B
:100C20000000000064190020BD378635B011002097
:100C300028190020DB0F4940DB0FC940DB0F49C0FA
:100C40000AD7233CBC290020C2B8B23E00190020BC
:100C50009C050020B02900204C3D0F44DB0FC93F0C
:100C6000B4290020B829002006EE903AAF4BF8EEE8
:100C7000E66AB3F9043027EE888A07EE103AA6EE4A
:100C8000838A98F80130B8EEC77A27EE800A67EEBB
:100C9000A37AA7EE048A012BA6EEA40AE6EE857AD3
:100CA000B1EE488AA7EE250AE7EE067A00F04587FE
:100CB0009F4B1B8807EE103AB8EEC77A77EEC77ADB
:100CC0009C4BD3ED596A93ED587A79EE266A77EE0C
:100CD000C77A89EE266AA6EE277AB0EE479A83EDA8
:100CE000587A18F0EDFC934BD3F8685129780DF041
:100CF0009DFB904BD3F86C3118448E4BB0EE480AF4
:100D0000C3F86C0118F0DCFC29780DF08FFB894BDF
:100D1000D3F870311844874BB0EE490AC3F870011C
:100D200018F0CEFC69780DF081FB824BD3F874216A
:100D3000D3F87811D3F87C31104418EE902A11447E
:100D40007C4A0133C2F87401C2F87811C2F87C31D0
:100D5000FFF773BA012386F8403191E54FF4FA7337
:100D6000FFF76CBBEA1BB44692B2734BDF88BCF151
:100D7000000F00F04284714B1B689D88D98838B2FF
:100D80006E1AB04200F366866D4D19882B68B3F871
:100D900000E0684B012083F89C028BB21FFA8EFEA4
:100DA000CEEB030080B212B20FFA80FC944580F2C1
:100DB0001784644B012119700A9B63B10A9B594641
:100DC0000BEB43060B8813FB00F393FBF2F321F8C4
:100DD000023B8E42F6D10CEBDC7C0EEB6C0C1FFA66
:100DE0008CF213460A99002901F09D820D99564E06
:100DF00008785249D6F800E009680C913FB207EE36
:100E0000907A4D492D68B1F906804A49DDF828905D
:100E1000D1F8A0C291F89C120B9112B2B8EEE75A29
:100E200007EE902A1BB200F00400B8EEE76A07EE66
:100E3000903AC7B208970EF0100044490F9F0EF485
:100E4000805EF8EEE75A0022CDF818E0404B03EB45
:100E50000213D3ED006A3BF9123065EE267A07EEF5
:100E6000103AF4EEC67AF1EE10FAB8EEC77A00F155
:100E70006382F4EE657AF1EE10FAC8BFF0EE657A9F
:100E800077EE277AFDEEE77ACDED047ABDF81030E3
:100E900021F8023B30B1BCF810E0F045BCBFAB8894
:100EA00021F8023C002F00F03982B5F804E0B5F8D3
:100EB00002A01BB2734503DB9A45D646A8BF9E46E7
:100EC00021F802EC18B1089B002B40F04B82013254
:100ED0004A45BBD1089F002F00F076830E9B1D680A
:100EE0002B0141F11882134B93F8A492B9F1190F19
:100EF000194607D80122174B02FA09F21340002BBA
:100F000040F09686DFF854A0134BDAF800E0049323
:100F10000D4B1B689D0600F1D582049B1A880E4D6F
:100F200004950021AE1E2F461CE000BF28190020AA
:100F300004040020B011002080440020302900204B
:100F400034290020EA240020784800204C19002091
:100F50008C13002032413003381900205C2200201D
:100F600037F8022F0EEB010012B2B0F90030B0F9E1
:100F700002009A4201F10E0103DB03B29342A8BFC3
:100F80001346702926F8023FEAD19D4BD3F8D87159
:100F900097F908300BB3DFF894820026B7F90620E2
:100FA000B5F90010404610F0E9F9DAF8003080B2E7
:100FB00033442880B3F90020B3F9023000B29042E4
:100FC00006F10E0608F1880803DB1AB28242A8BFB8
:100FD0000246702E25F8022BE0D109F1FF33182BC1
:100FE00000F28F80DFE803F0668D8D0D8D8D8D50C2
:100FF0008D8D8D8D8D448D8D8D8D8D0D5B8D8D4465
:101000006600049D002029890EF0E0FF6989012017
:101010000EF0DCFF02257B4B1B689A0662D4DB02D4
:1010200000F10683764B93F81037002B40F0B38421
:10103000754B1B78002B7FF4B5A8724A1268170312
:101040007FF5B0A86E4A92F81157023D1646EAB2F3
:10105000052A41F2C681082D66D8DFE815F0170190
:1010600044010501E900A300B700850077005400A2
:10107000664E0020451CEDB236F8021F0EF0A6FFAA
:10108000062D2846F6D126E0049D0020E9880EF0C2
:101090009DFF298901200EF099FF0225BBE75C4ED8
:1010A0000025E8B236F8021F01350EF08FFF042D3F
:1010B000F7D1B0E73B79002B40F0F8870D9B1B7808
:1010C00003F0040303F0FF01002B40F0EF87084614
:1010D0000EF07CFF01254B4B1B689A0602D4B9F138
:1010E000050F9CD1049E284631880EF06FFF681CC6
:1010F0007188C0B20EF06AFF424B02351B68EDB238
:101100008DE70025E7E73E4B424AD3F824371268C3
:10111000C833934202D313F0E1F928B113F0C4F9B4
:10112000374A012382F811373B4B93F83637012BAE
:101130007FF438A839493A4AC968126891423FF6A3
:1011400031A82F4A82F81137FFF72CB82C4B93F8AF
:10115000382722B30E9A1268900120D4082283F80F
:10116000112709F0B9F8DFE70E9B1B689C01F8D541
:10117000234B234CB3F83037002BF2D1294AD4F853
:1011800034371268149259460E20139308F058FD14
:101190004FF480520923A4F82E2784F8113708F061
:1011A000A7FDDEE7204B002105208DE80300A3F119
:1011B00008020291532009F0BBF80028B4D1104A6C
:1011C0000723C2F8200782F81137ADE7402013F05B
:1011D0003DF90028A8D10A4BD3F820370C2B01F297
:1011E0009B81DFE813F0A809BA09B409E00AD30A21
:1011F000CC0AC50AB90AB30AAA0A9D0A850A770A5F
:10120000B011002078480020582200203A19002010
:101210003C1900201C2A0020F83C00200804002073
:10122000602200209047002060C301088014002045
:10123000C84A0292A2F10C03072101930091A2F186
:1012400008030021143A472009F072F800287FF4BF
:101250006BAF4FF0FF320623BF49C1F82007C1F83A
:10126000242781F811375FE7BC4B002102208DE86D
:101270000300A3F108020291482009F059F8002860
:101280007FF452AF4FF0FF320523E5E7B24BB44A8B
:10129000D3F824371268B04C64339342BFF444AFA0
:1012A000402013F0D3F800287FF43EAFD4F8203765
:1012B000AC4E402410E008F0D9FBA74BA649D3F868
:1012C0001827D3F82037013A0133013CC1F8182719
:1012D000C1F8203701F01382F35CA24D1846002BB1
:1012E000E9D101F010BAA04A0292A2F10C03242124
:1012F00001930091A2F10A035021163A492009F006
:1013000017F800287FF410AF984B1B6813F0800388
:1013100001F036814FF0FF3204239DE7069EC6B1EF
:101320000B9E66B1B5F800E00C9E1BB27345B6F893
:1013300000A0BFF6C1ADC3E5F0EE467AA0E50C9E75
:10134000B5F802A0B6F802E01BB27345BFF6B4AD23
:10135000B6E5B5F800E0B5F802A01BB27345BFF6DC
:10136000ABADADE5069B002B7FF4B1ADBCF8103002
:101370009845BCBFAB8821F8023CA8E50493B6F9B8
:101380000030069100EE103A4046B8EEC00A0CF06C
:1013900051FD18F095F9049BAAF800000699FFF793
:1013A00066BA734A73491360734B0D910E93DFF85D
:1013B000ECA1FFF7F3B87149714F81FB0310D91706
:1013C000C1EB6010411C37F810700A976C4F37F969
:1013D00011700B976FF0630101FB0033BDF92870AA
:1013E0000B98C11B03FB01F3644981FB0301DB176D
:1013F000C3EB61130A991944AEF80010FFF74DB81A
:10140000554BDFF89CA19B6F9FED5E8A1B7806937E
:1014100000264FEA8608B0F57A7F08EB060300F055
:101420001C81DAF8102004924B4A574935F916C04E
:1014300051F8261002EB830302EB080E049A07EE24
:1014400090CA01326144012AC3F88C20CEF8B8104A
:10145000F8EEE76A00F01481D3ED1F7AD3ED215A3C
:1014600007EE102A36EEE75AB8EEC76A85EE067A1E
:1014700077EE277AB0EE657A76EEE76AC3ED207AEA
:10148000A5EE267AC3ED1F7A83ED227A83ED217AC9
:10149000314A73001A444FF000010128A2F8C41029
:1014A00025F816102C4A00F088820136032E0AF126
:1014B000140AAED1012800F023860138A9F80000F3
:1014C000FEF730BF9EF80930FF2B00F0E8802F4A6E
:1014D00012789A4240F2E3802D4A32F813209EF8A7
:1014E00017300499FF2B0A8000F0D680274909782D
:1014F000994240F2D180264931F813100E9B04988E
:101500001B6841801806234D7FF509AD124BD3F8B7
:10151000C8321B78012B00F012871F489EF906C0C5
:1015200043889EF91470154E00881CFB03F317FBCB
:1015300000F086FB03C7DB17C3EB271386FB00769F
:10154000C0171A44C0EB261092B208442A80688063
:10155000E5E400BF18C30108B0110020FCC2010877
:101560001C2A0020E4C001085AC101087848002064
:10157000E445002000190020FC1800201F85EB51D5
:1015800000230020000000006812002044440020D6
:101590008044002038190020641900202C0D002000
:1015A0002C120020C7490988B1F57A7F3FF62BA895
:1015B00013F0010FC44B08BF02221A70FFF72AB8BC
:1015C0000A9B002B3FF48FACC04B0A99C04A03EB37
:1015D000410033F8021B22F8021B8342F9D182E456
:1015E00002EBD2725010BB490EEB00021B1A002610
:1015F00092B29BB20E70FFF7F5BBB74D2B68B3F8F4
:1016000000E05988FFF7C9BBB44A0692117801F08F
:10161000100202F0FF06002A40F04682B04A9FED19
:10162000B18A04923346FFF749B90022FEF754BF4E
:10163000AD4B2846198903F108070EF0C7FC0135A8
:10164000EDB207F11A0637F8021F28460EF0BEFC6D
:101650000135B742EDB2F6D1E4E40021CAF810102A
:10166000A24935F9162001EB83030121C3F88C1040
:101670009E4B07EE902A4344F8EEE76AC3F8B82081
:101680009A4A08EB060302EB8303C3ED206AC3ED1D
:101690001F6A83ED218AFBE6BEF812102EE7BEF822
:1016A00004201CE7012100200EF0EAFDFEF7BBBF7D
:1016B00010F01D037FF44FA8864A0A9E1370002E77
:1016C0003ED08A4B8A4AD3F8D831B2F9027093F9E6
:1016D0000010B2F90430B2F9002004EE902A854AD5
:1016E0004942B2F9062003FB01F105EE102A07EE8C
:1016F000901A04EE107A804A7549F8EEE75AB8EE6F
:10170000C44AF8EEE44AB8EEC55A02EB0616D2ED2A
:10171000027A92ED006AD2ED016A92ED037A64EEEC
:10172000277A1032E6EE057AB242E6EEA47AE5EECA
:10173000877AFDEEE77A17EE903A21F8023BE6D180
:101740000D9B1B7859077FF53BAF6C4B10F4805A0B
:101750001F7840F098865E49012F0B880DD907F15C
:101760000046013E01EB460631F9022F1BB29342BF
:10177000B8BF1346B1429BB2F6D1574A126852889D
:1017800019B2914240F37F869B1A1FFA83FC002F07
:101790003FF4A9AB5A49504A0E681168524A4C4B63
:1017A000B2F906E0514A05F02059D2F8A08200F0C3
:1017B0001002049203EB47074D46BAF1000F40F0C8
:1017C00034811A88CCEB020292B21A800F9800285A
:1017D00000F09C818888B1F8029012B2824203DB4B
:1017E00091454846A8BF1046188002339F42E4D175
:1017F000FFF779BB3D4B3D4D93F89A31B5F89861B1
:10180000002B00F05B843F4B384D1B88DFF8FC90C9
:1018100000EE103A05F5CE70B8EE400A0CF00AFB67
:10182000FCEEC07A99F80030CDED047ABDF81000D6
:10183000B6FBF0F0461CB6B2A5F8C061002B00F074
:10184000EB83DFF8B0C0B5F8C28105F5E27E36B2B1
:1018500005F5E67500273CF8023B2988BEF8002014
:1018600025F8023B01375B1A12FB08F2042F92FBAA
:10187000F6F213442EF8023BEDD11C4A80B200234D
:10188000A2F8C20189F8003003B2002B40F3228491
:101890001D49DDF830E031F90C7CA1F1080501F1BA
:1018A000080631F8022B35F8023BB14213FB00F376
:1018B00093FBF7F3A2EB03032EF8023BF1D1FEF703
:1018C00078BE00BFE8440020A8480020082200207D
:1018D0004C190020EA24002034290020801900201F
:1018E000641900200000000080440020B011002096
:1018F00004250020C02400208C1300203428002060
:1019000030290020F01800207C1300206C1B0020E0
:10191000BB4BBC4AB3F90430BB499FEDBC7AB1F86C
:10192000961182FB0302DB17C3EBA2035B1A1BB207
:1019300008EE103AF8EEC87A27EE878AB0EE480A29
:101940000CF084FDF0EE408AB0EE480A0CF092FDF7
:10195000AF4BAF49B3F9023007EE103AAC4BB3F9D5
:101960000030B8EEC77A06EE903A67EE407AF8EEAD
:10197000E66A20EE260AE8EEA67AA8EE870AFDEED1
:10198000E77A17EE902AFDEEC07A0A8017EE903AB9
:101990004B80FEF708BE0FF053FEFFF749BB9FEDEB
:1019A0009DDAFFF700B8089BDB79C3F16405FEF709
:1019B00018BDC3ED007AFEF7E2BD08EB060102EBAD
:1019C0008102D2F88C10012940F30785013907EE16
:1019D000901A92ED227AF8EEE77A87EE270AF1EE76
:1019E000C07AF4EE677AF1EE10FA40F0C185069AFB
:1019F0004AB107EE102AB8EEC77AB4EEE77AF1EEF4
:101A000010FA00F18385804A8349B9F800009044B8
:101A10001344D8F8B82002F5FA7281FB02E1D2171C
:101A2000C2EBA112A3F8C4203FE5002D40F03B8398
:101A3000B8F80E20F088C0EB0209CE4540F3508381
:101A40001044864580F24C839645CCBF728832881C
:101A50001A80CAE62944714DB3F802E02B68884227
:101A6000C0F215835988684B002083F89C02FFF769
:101A700094B9654B27EEAC5A93ED526A93ED537AC5
:101A8000D3ED546A67EE885A67EE8D7AA9EE056A3F
:101A9000A9EE257AE9EE276A83ED526A83ED537A3F
:101AA000C3ED546AFEF7CBBF13F0200300F06B8444
:101AB00001F0020101F0FF0600293FF4AFAD584BE1
:101AC0001B78042B40F2E384564B1B88B3F5967FBA
:101AD000C0F00A85544B4A4A1B88DFED4C6A0492D9
:101AE00007EE103AB8EEC77AB2EE046A87EE068ABD
:101AF000B2F90430012607EE903AF8EEE77A0023B7
:101B000077EEC87A27EEA68AFEF7D8BE0888B1F825
:101B1000029012B2824203DB91454846A8BF1046AC
:101B20001880B8F810209645BFF65FAE049A002AD8
:101B30003FF45BAE8A881A8057E60D9B1B7813F042
:101B4000040F314BD3F85C3113D1002B1A46B8BFC8
:101B500003F13F02A3EBA21307EE103AB8EEC77AE7
:101B6000294A37EE277ABDEEC77A17EE103A82ED92
:101B7000577A002BB8BF3F339B1107EE103AB8EEEF
:101B8000C77A77EEC77AFFF79BB8B1EEE50AB4EEF5
:101B9000400AF1EE10FA40F0E584B7EE007AC7EEA5
:101BA000007A95ED076A95ED085AD5ED065A2BEEA9
:101BB00027BA6BEEA7BA2CEE27CA25EE4B7A66EE53
:101BC0006B6A65EECC7AECEE056AABEEA57AEBEECD
:101BD000067A7CEEA6CA38EE078A3DEE27DAFEF7D3
:101BE00015BF124B1A6844F61F639A42F7EE005A6B
:101BF000B2EE045A88BFB0EE655AFEF72ABF00BFA6
:101C00006419002067666666B011002035FA8E3CC4
:101C1000C024002000000000D34D621034290020B1
:101C2000811900208E190020901900201C2A002004
:101C3000974B1B88DF0540F1F083964AD1F8A0321C
:101C4000108851889288ADF84C00ADF84E10ADF870
:101C50005020D989904BB3F806C0904A904DB2F904
:101C60000230B2F900208F48B5F800E08A4D4FF4F9
:101C70007A7603F5E16302F5E16206FB03F306FB06
:101C800002F2C1EB0C0CADF85AC080FB038C80FB58
:101C9000028010442F886E88AD889C44D217DB17D1
:101CA000C2EBE022C3EBEC237F1AA3F5FA73A2F593
:101CB000FA727948ADF86430ADF86620764B764A12
:101CC000ADF85470744F80891B895289FF89761A48
:101CD000ADF85660461A7448ADF860605B1A521A47
:101CE0006D1AAEF2DC5E791AADF85C30ADF85E20AC
:101CF000ADF852E0ADF85850ADF86210034600223E
:101D000023F8022F69498B42FAD1694BDFF8B4A15D
:101D10001B780A93002B00F0EF830E9B654A1B682B
:101D20000C93654BDAF800E004920022CDF844A051
:101D3000DFF894C110901E46CDF82CE0924613E0D7
:101D40000122153302FA03F30C9A134010D13380A9
:101D50000AF1010A0A9A5FFA8AF39A420CF1070C17
:101D600006F1020640F25F819CF80030002BE7D1BB
:101D70001CF8012C1CF8060C08920B9A1CF9023C6A
:101D80001CF803EC1CF8055CC0EBC00102EB410140
:101D9000B1F90220B1F90070D21B92B2474F02FB99
:101DA00003F387FB0387DB17C3EB67134FEA520884
:101DB000C8EB03039BB20693BEF1000F35D11AABFB
:101DC00003EB450737F81C7C378001231CF904EC32
:101DD000D1F80A1003FA05F5384B1EFB07F783FB11
:101DE0000739FF17BDF918302942C7EB69170CBF37
:101DF00001214FF0FF319F420FDB9DF9203002FBA4
:101E000003F22E4B83FB0253D217C2EB6312C8EBD3
:101E100002031BB2BB42A8BF3B46049D35F810200D
:101E200003FB012325F8103092E71AAB03EB4509B9
:101E3000378839F91C9C3BB24B450F930EDBC4DD50
:101E40000F9FCEEB070ECE453B4603DB7745A8BF81
:101E5000734699461FFA89F73780B6E79E44734563
:101E60001F4603DCF1454F46A8BF7746BFB2378017
:101E7000ABE7134BF0EE656AB0EE657AB0EE656ADB
:101E8000C3ED525AC3ED535AC3ED545AFEF7D7BDB2
:101E9000F8180020C024002080440020641900208D
:101EA0004C190020C5B3A291361900204619002014
:101EB0003829002038190020581400201F85EB51C4
:101EC000B01100205C2200204229002035FA8E3C0F
:101ED00007EE903A1FED037ACF4DF8EEE77A67EE02
:101EE000877A17EE900A14F083FC41EC100B41EC5A
:101EF000180B17F0DDFAC94BB3F9000057EC106B63
:101F000014F064FCB0EE480AF0EE680A8046894698
:101F100017F02EFBC14BB3F904008DED040B14F048
:101F200055FC4246CDE906014B4630463946CDE9DF
:101F3000086714F0B1FCDDE9062306460F46DDE92B
:101F4000040114F0A9FC02460B463046394614F051
:101F5000F1FA14F03BFFB0F5FA7F0346A8BF4FF447
:101F6000FA731E46AE42AD4FB8BF2E463E80DDE945
:101F70000623DDE9080114F08FFCDDE904230646A1
:101F80000F464046494614F087FC0B460246394648
:101F9000304614F0CFFA14F019FFB0F5FA7FA8BF5D
:101FA0004FF4FA70A8429D4BB8BF28469880FEF7C0
:101FB00009BB9A4A9A48B2F90410B0F904500029B2
:101FC000B8BF49425A42521A954204DB0B44AB4215
:101FD000A8BF2B461A468280FEF7B6BB914BDFEDB9
:101FE000927A93ED080AB4EEE70AF1EE10FA00F2E5
:101FF000D1810020894B894ADB880344D380FEF7D6
:102000003BBB8A488A4A03600021436083601160B9
:1020100051609160FEF77ABBB5F8C201013880B219
:10202000A5F8C20130E41098DDF82CE0DDF844A0FA
:10203000804B814F1D78714609E0804E36F81220A2
:10204000134403807E4B984201F10E0112D030F808
:10205000023F91F9062012FB03F287FB0263D217BD
:10206000C2EB631303804A7AFF2A01D0AA42E4D369
:102070008A88E5E7734B93F8A492FEF749BF724B49
:1020800093F8EA31002B3EF4E9AAFEF7EABA774664
:102090005988FEF782BE6D4B0D936D4B0E93DFF8A2
:1020A000D8A1FEF77BBA1A88FFF790BB049B0020EB
:1020B00059890DF08BFF0125FFF70DB89FED650ADB
:1020C00005F5CE7101200BF0DDFE012385F89A3174
:1020D000FFF799BB5B4A0023A2F8C231FEF769BA49
:1020E0009645B3F9000040F3AD817288B1F80290D3
:1020F0009042FFF620AD81454A46A8BF02461AE548
:102100000DF04AFDB9F80000FFF7D7B99AF8003092
:10211000002B7EF443AA504B01221A70FEF73EBA00
:102120004E4B4F4AB3F904309FED4E7A82FB0312B7
:10213000DB17C3EBA2031BB208EE103AF8EEC87A25
:1021400027EE878AB0EE480A0CF094F9F0EE408A48
:10215000B0EE480A0CF07AF9434B1B68DE78002E8B
:1021600000F078814148424F4288B7F9021013B21B
:10217000CB1A44F250618B4240F39B81A3F50C4390
:10218000A03B7142994200F3AD81B342A8BF3346F0
:10219000B0F800E0B7F9007013440FFA8EF21FFA9E
:1021A00083FCBA1A44F250639A42A0F802C040F38A
:1021B0008781A2F50C42A03A914203DC9642314657
:1021C000A8BF11460EEB010292B213B207EE903A8D
:1021D0000FFA8CF3F8EEE77A07EE103A27EEE86A8A
:1021E000B8EEC77A60EE277AA0EE076A214902802E
:1021F000E8EE877AF2EE045AC6EE256A87EEA57AF3
:10220000FDEEE67A17EE902AFDEEC77A0A8017EE09
:10221000903A4B80FEF772BA0CFEFFFFC0240020FC
:1022200004250020BC2900208FC2753CB424002066
:10223000C4450020444400201F85EB518044002009
:1022400046190020B0110020F83C002000190020A1
:10225000FC18002000000000E82400206419002081
:102260006766666635FA8E3C0C1B0020141B002046
:10227000181B0020D02400202C0D0020B1EEE70A0E
:10228000B4EE400AF1EE10FA40F01F82F7EE007A49
:10229000C7EE806AC54D95ED047AD5ED035AD5EDAC
:1022A000017A95ED006A28EE268A6CEEA6CA28EE21
:1022B000077A68EE277AACEEA57A2EEE26EAECEEE7
:1022C000867AD5ED056AB0EE478AAEEE268A95EDA0
:1022D000027AEEEE077A28EE080AA7EEA70AF1EED8
:1022E000C07AF4EE677AF1EE10FA40F0E98167EE19
:1022F000C87A9FEDAF8A95ED086AD5ED066A95ED2F
:10230000077AF0EE48CAA7EE86DAE7EEA6CAA7EE8D
:10231000878AFEF76DBBA74B186810F01D0F7EF47F
:10232000E2ADFFF712BA0D9B1B785A077EF5DBADC5
:10233000FEF7D4BD00F4805C1A46FEF716BD9E4B36
:102340009EF90660B3F800C0B3F902709EF914005C
:102350009A4B764210FB0CF007FB06F683FB00C796
:1023600083FB06C3C017C0EB27101B11F61787B2FB
:10237000F01A38449E1B02443E4492B20E442A8016
:102380006E80FEF7CCBD8C4A9FED898A04921E4672
:10239000FEF794BA17F026FA894BD3ED757A20EE42
:1023A000270A17F08DF9B0F5617FA8BF4FF461706F
:1023B00007EE900A9FED830AF8EEE77A87EE800A2F
:1023C0000CF058F807EE906AF8EEE77A27EE800AEC
:1023D00017F076F93D6880B20CE69FED750AFFF7BD
:1023E000FEBA794A92F83627002A72D0012A6ED1B5
:1023F0000FF0F4FA724B93F81C27D3F818371344F4
:10240000B3F5807FA8BF4FF4807383426C4AA8BFA6
:102410000346C2F81837FEF71EBE664A6B4B1268B9
:102420001888ADF84C00D60458889B88ADF84E004B
:10243000ADF850302ED4D1F8A032654AD989B2F81F
:1024400006C00AE48A88B6F800909042BFF653AE00
:10245000FFF771BB5F4B6049B3F90020B3F902305D
:1024600007EE902A07EE103AF8EEE77AB8EEC77A50
:1024700027EEE86A60EE277AA0EE076AE8EE877A30
:10248000F2EE045AB8E64FF0000CFFF780B90026D0
:10249000FFF7C4B8D1F8A0224D49B1F806C0D189E0
:1024A0000FFA8CF28A42BCBF5B42ADF85030FFF7A6
:1024B000D4BB4A498B42BCBF03F50C43A03360E652
:1024C000464B9A42BCBF02F50C42A03274E6184655
:1024D00090E7D6F8140703689B68984796F8115759
:1024E000023D87E70B4653E6334B049300269FEDEE
:1024F000308A3346FEF7E2B9A1F10E030493DAF80D
:1025000000E095E52B461D46FEF754B94FF47A736B
:10251000A9F80030FDF706BF11F0E0FF00283EF4F7
:1025200003AE27494FF480520923A1F82E2781F8E2
:102530001137FEF7F9BD2A4812F0BCF8204B204AAB
:10254000D3F820370133C2F82037FEF7EDBD254A16
:102550002549264812F0AEF8F0E72549254812F043
:10256000A9F8EBE7B0EE650A17F09CF9FFF715BB89
:10257000049317F097F9049BF0EE407AFFF737BA0F
:102580000F484FF0FF310622C0F82037C0F824175B
:1025900080F81127FEF7C8BD0A90089317F082F95A
:1025A0000A98089BF0EE40DAFEF7CCB9BC2900206F
:1025B0000000000078480020641900201F85EB51BE
:1025C000B0110020EFB6B044F83C002004250020F4
:1025D00080440020181B0020D0240020B0B9FFFF49
:1025E000D8E3010814E4010820E401082CE4010800
:1025F000F4E30108FCE30108049991F81A1119B1F8
:102600009942B4BF5B1A00230699002938D0089973
:10261000097A07EE903A06EE901AB8EEE77AF8EEED
:10262000666AC7EE047A6449C6EEA45A27EEA76A22
:1026300075EE656A26EE276A66EEA77AE5EE867A7B
:1026400027EE877ADDED0D7AF8EEE77A67EE277AE6
:10265000FDEEE77A17EE903A8B804FF06403624507
:1026600088F80230FDF61DAFFDF725BFB0EE660A13
:102670000A92089317F016F90A9A089BFEF749BACE
:102680004E48642193FBF1F100EB41073846B7F95E
:102690008871B0F98A010A906FF0630000FB013382
:1026A0000A99C81B03FB00F36FF0630193FBF1F37E
:1026B000BDF83810DB1B13FB01F33F498B80CCE7DF
:1026C00017F0F0F8F0EE407A11E6B0EE670A17F076
:1026D000E9F8DBE53A4B1B681D057FF52FAF394B59
:1026E0003948B3F98021B3F8821111F0E3FF25E7EF
:1026F000324B3648B3F82C1711F0DCFF1EE7EB5CC9
:10270000002B7EF411AD2D4800214FF0FF32032342
:10271000C0F82017C0F8242780F81137FEF704BD51
:10272000284B284A274993F87D3192F87F2191F868
:102730007E11274811F0BEFF00E7204BD3F8282771
:10274000D6040ED40B22C3F82027F7E6214B2248EB
:10275000198811F0AFFFF1E62169204811F0AAFFB6
:10276000ECE6184B1E4893F87A1111F0A3FFE5E64A
:10277000144B1C48B3F8421111F09CFFDEE6114BDC
:102780001948B3F8401111F095FFD7E60D4B0D49EC
:1027900093F8083715480E2202FB031393F80A1723
:1027A00011F088FFCAE6074B114893F8352793F8D4
:1027B000341711F07FFFC1E6C0240020B0110020C3
:1027C00078480020F83C0020D4E40108C8E401085F
:1027D000ACE401080404002090E4010880E401084E
:1027E0009CE4010870E4010860E4010854E4010875
:1027F00040E401082DE9F04F2DED048B0138A3B022
:10280000FD2801F2D982DFE810F037081F08FB0726
:10281000E407AC07D70AD70AD70AD70AD70AD70AD4
:10282000D70AD70AD70AD70AD70AD70AD70AD70AA0
:10283000D70AD70AD70AD70AD70AD70AD70AD70A90
:10284000D70AD70AD70AD70AD70AD70A6407D70AF6
:102850005C07D70A4807D70A2807D70A1F07D70AED
:10286000ED06D70AD70AD70AD70AD70AC706D70A62
:102870007306D70A5106D70A2806D70A2306640921
:10288000D70A4609D70AD70A2E09D70AF608D70A5F
:10289000D70AD608B2087708D70A5608D70A840A92
:1028A000D70A540AD70AD70AD70AD70AD70AD70AA3
:1028B000D70AD70AD70AD70AD70AD70AD70AD70A10
:1028C000D70AD70AD70AD70AD70AD70AD70AD70A00
:1028D0002E0A7D09AC0AA60AD10A0B0691057305DA
:1028E00058054905D1059C046304D70AB503940330
:1028F0004E033903F302BA025302D70AD70AEF0193
:10290000D70AD70AD70AD70AD70AD70AD70AD70ABF
:10291000D70AD70AD70AD70AD70AD70AD70AD70AAF
:10292000D70AD70AD70AD70AD70AD70AD70AD70A9F
:10293000D70AD70AD70AD70AD70AD70AD70AD70A8F
:10294000D70AD70AD70AD70AD101D70AD70AD70A8E
:102950007501D70AD70AD70AD70AD70AD70AD70ADA
:10296000D70AD70AD70AD70AD70AD70AD70AD70A5F
:10297000D70AD70AD70AD70AD70AD70AD70AD70A4F
:10298000D70AD70AD70AD70AD70AD70AD70AD70A3F
:10299000D70AD70AD70AD70AD70AD70AD70AD70A2F
:1029A000D70AD70AD70AD70AD70AD70AD70AD70A1F
:1029B000D70AD70AD70AD70AD70AD70AD70AD70A0F
:1029C000D70AD70AD70AD70AD70AD70AD70AD70AFF
:1029D000D70AD70AD70AD70AD70AD70AD70AD70AEF
:1029E000D70AD70AD70AD70A64011101D70AD70A2A
:1029F000D70AD70AD70AD70AD70AD70AD70AD70ACF
:102A0000D70AD70AFE0008210020A04C10F00CFEC7
:102A100004F1080534F8020B10F068FEAC42F9D15D
:102A2000012023B0BDEC048BBDE8F08F70210020A5
:102A3000974C984E984D10F0F7FD04F1700894F8FB
:102A4000D070306839460DF017F92A6830689379EC
:102A50007B40937194F8D17039460DF00DF92A68D6
:102A6000306893797B40937194F8D27039460DF0B9
:102A700003F92A68306893797B40937194F8D37096
:102A800039460DF0F9F82A68306893797B409371E4
:102A900094F8D47039460DF0EFF82A6830689379CD
:102AA0007B40937194F8D57039460DF0E5F82A68AB
:102AB000306893797B40937194F8D67039460DF065
:102AC000DBF82A68937907347B4044459371B6D18B
:102AD000A6E7724C0421002010F0A6FDA36DB3F808
:102AE000620010F003FEA36DB3F8600010F0FEFD6D
:102AF000012096E7DFF8A481664E98F8BC10664D79
:102B000089000131C9B2002010F08EFD98F8BC4058
:102B1000306821460DF0B0F82A6898F8BC10937917
:102B20006340937100293FF47BAF08F1BF0308F1C4
:102B3000CF0A08F1DF0908F1EF074FF0000B1C4640
:102B4000CDF8008014F8018F306841460DF094F8FC
:102B5000296830688B7988EA03038B711AF8018F32
:102B600041460DF089F8296830688B7988EA0303BB
:102B70008B7119F8018F41460DF07EF82968306895
:102B80008B7988EA03038B7117F8018F41460DF0AA
:102B900073F82968009B8A7993F8BC000BF1010B4C
:102BA00088EA020258458A71CCD839E70C21002006
:102BB00010F03AFD3A4B1C68A0B210F097FD200CC3
:102BC00010F094FD374B1C68A0B210F08FFD200C64
:102BD00010F08CFD344B1C68A0B210F087FD200C67
:102BE00010F084FD01201CE73C21002010F01CFDAA
:102BF000DFF8A8809FED2D8A0024D8F8583003EB29
:102C0000840393ED080A20EE080A16F059FD80B2FD
:102C100010F06CFDD8F8583003EB840393ED0B0AE9
:102C200020EE080A16F04CFD80B210F05FFDD8F8D7
:102C3000583003EB840393ED0E0A20EE080A16F0D9
:102C40003FFD013480B210F051FD032CD5D1042595
:102C50009FED168A01E001340135072CD8F8583071
:102C600001F0DC812344587810F040FDD8F858304A
:102C70002344D87A10F03AFDD8F858302344587DD0
:102C800010F034FD0A2DE6D1CAE600BFF01900208D
:102C9000F83C0020A4440020A8440020F0180020A4
:102CA000107AFF1F147AFF1F187AFF1F00007A4462
:102CB0007021002010F0B8FCA84EA94DDFF8B082BA
:102CC0004FF00009C9EBC904D8F858306400234418
:102CD00009F10109B3F8210110F008FDD8F85830C6
:102CE0002344B3F8230110F001FDD8F858302344F1
:102CF000B3F8250110F0FAFCD8F8583030682344B6
:102D000093F8277139460CF0B7FF2968D8F8583086
:102D10008A79306823447A408A7193F82871394659
:102D20000CF0AAFF2968D8F858308A793068234413
:102D30007A408A7193F8297139460CF09DFF296811
:102D4000D8F858308A79306823447A408A7193F8E9
:102D50002A7139460CF090FF2A68D8F858109379F8
:102D60000C447B409371D4F82B41A0B210F0BEFC10
:102D7000200C10F0BBFCB9F1080FA3D150E6DFF82E
:102D8000F081002098F8111010F04EFC98F81130E6
:102D9000002B3FF445AE734E704DDFF8C49108F13F
:102DA00013070024002317F8010F6F4A194604E0A7
:102DB0000133222B16D012F80C1C884202F10C02AF
:102DC000F6D1DBB203EB430306EB8303286893F8E9
:102DD00038A051460CF050FFD9F8002093798AEAC8
:102DE0000303937198F811300134A342DAD817E63F
:102DF0005B4D2A68D379591C1344D1711F7A122173
:102E0000002010F011FC002F41F0F180DFF860810C
:102E1000D8F8A840D8F8AC601FFA84FA1FFA86F9EF
:102E2000240C360CDFF834B13946DBF800000CF026
:102E300023FF2A6893795F409771504610F056FC43
:102E4000204610F053FC484610F050FC304610F07D
:102E50004DFCD8F8B840A0B210F048FC200C10F09F
:102E600045FC002010F042FC002010F03FFCDBF895
:102E7000000000210CF000FF0120D2E52F210020EE
:102E800010F0D2FB374F354E354D52242146306875
:102E90000CF0F2FE2A6893795C40947117F8014FA8
:102EA000002CF3D1BCE5012200238DE80C00DFF8F3
:102EB000C0802A4E2A4D98F81130002B00F08787E9
:102EC0002A4F0024002317F8010B274A0134194622
:102ED00005E00133222B00F0758712F80C1C8842A4
:102EE00002F10C02F5D11F4ADBB203EB430302EB04
:102EF0008303D3F834B0584619F02FF8009B002B09
:102F000040F05D870028C8BF0BEB000A0CDD1BF802
:102F1000019B306849460CF0AFFE2B689979D34588
:102F200089EA01019971F2D198F811309C42C9DB0C
:102F300076E50821002010F077FB084E084D0127A8
:102F4000FCB2214630680CF097FE2A68937901376D
:102F50006340092F9371F3D162E500BFA4440020C0
:102F6000A844002080C30108BCC301080419002044
:102F7000F0180020C44CC54DC54E1C21002010F097
:102F800053FBB4F8960110F0B1FBB4F8400110F017
:102F9000ADFBB4F8420110F0A9FBB4F8440110F005
:102FA000A5FBB4F8DC0110F0A1FB94F8F1712868DE
:102FB00039460CF061FE3268286893797B40937142
:102FC00000210CF059FE94F8F271286839460CF093
:102FD00053FE3268286893797B40937194F8857129
:102FE00039460CF049FE3268286893797B4093712A
:102FF00094F8927139460CF03FFE32682868937954
:103000007B40937100210CF037FEA24BA2489B6DD0
:10301000B3F95E3080FB0320DB17C3EBA00080B266
:1030200010F064FB94F87A71286839460CF024FE9D
:103030003268286893797B40937194F87E713946A1
:103040000CF01AFE3268286893797B40937194F8EB
:103050007D7139460CF010FE3268286893797B4008
:10306000937194F87F7139460CF006FE3268286837
:1030700093797B40937194F8617139460CF0FCFDB3
:10308000326893797B409371B4F8500110F02EFBB5
:1030900094F85F71286839460CF0EEFD32682868B4
:1030A00093797B40937194F86A7139460CF0E4FD92
:1030B0003268286893797B40937194F8694121467E
:1030C0000CF0DAFD32689379634093710120A8E433
:1030D000DFF8C0811E21002010F0A6FAD8F8583081
:1030E0001A78022A00F0CA860024684E684DC1464C
:1030F00001E0D9F85830306823445F7839460CF045
:10310000BBFD2968D8F858308A79306823447A4062
:103110008A71DF7A39460CF0AFFD2968D8F858304B
:103120008A79306823447A408A715F7D39460CF091
:10313000A3FD2A68937901347B400A2C9371D8D17E
:103140006EE4DFF85081514E514D1021002010F0F7
:103150006BFAD8F88C3030681C7821460CF08CFD66
:103160002A68D8F88C1093793068634093714C7852
:1031700021460CF081FD2A689379634093714FF0EA
:10318000000AD8F88C303068DFF808913F4F53447C
:103190000AF1010A1C7921460CF06EFD2A68937928
:1031A000BAF1030F83EA04039371394CE9D1D9F8DA
:1031B0008C303868DE79344D31460CF05DFD226884
:1031C000D9F88C1093793868734093718E783146B2
:1031D0000CF052FD2268D9F88C109379386873404E
:1031E0009371CE7831460CF047FD2268D9F88C10E7
:1031F000937973409371488910F078FAD9F88C303C
:1032000038681E7A31460CF037FD2268D9F88C10E8
:1032100093793868734093710E7B31460CF02CFD26
:103220002268386893797340937195F84163314609
:103230000CF022FD2268386893797340937195F8F9
:10324000425329460CF018FD2268D9F8581093799A
:1032500038686B40937191F84E5029460CF00CFD84
:103260002268D9F85810937938686B40937191F8B7
:103270004F5029460CF000FD226893796B40937102
:103280000120FFF7CEBB00BFF83C0020A444002083
:10329000A8440020F018002067666666062100201A
:1032A00010F0C2F9002010F021FA002010F01EFAF0
:1032B000002010F01BFAFFF7B3BBC14C0621002021
:1032C00010F0B2F9B4F8740010F010FAB4F8760007
:1032D00010F00CFAB4F97830BA49DA1781FB03130D
:1032E000C2EBA30080B210F001FA0120FFF799BBF6
:1032F000B34C0521002010F097F9B4F8A20010F0AB
:10330000F5F9B4F8A40010F0F1F994F8A640AE4B2A
:1033100004F00104186821460CF0AEFCAB4B1A68AF
:1033200093795C4094710120FFF77BBBA44CDFF8DC
:103330009882A64F1021002010F076F994F8905052
:10334000D8F8000005F00205EDB229460CF094FC17
:103350003B6894F891609A79D8F80000554031465E
:103360009D710CF089FC3A68937973409371D4F89D
:103370009450A8B210F0BAF9280C10F0B7F9D4F8AC
:103380009850A8B210F0B2F9280C10F0AFF9B4F8C8
:103390009C0010F0ABF9B4F89E0010F0A7F9B4F857
:1033A000A00010F0A3F90120FFF73BBB072100208C
:1033B00010F03AF9864B844A1B881068804EFF2B28
:1033C000A8BFFF23DDB229460CF056FC7F4BF06FFF
:1033D0001A684FF6FF749379A042A8BF20466B404D
:1033E00020EAE070937180B210F080F9B6F88000A6
:1033F00010F07CF9774B93F88531002B00F00186B3
:10340000D6F8843003EB83035800A042A8BF2046BF
:1034100020EAE07080B210F069F90120FFF701BBEB
:103420006D4F3978490001F0FE01002010F0FCF8E2
:103430003B78002B3FF4F4AA684D002435F8020FC6
:1034400010F054F93B780134A342F7D8FFF7E8BAFB
:103450000421002010F0E8F827E75E4D5A4E5B4C3F
:103460000421002010F0E0F895F87A7130683946B0
:103470000CF002FC2268306893797B40937195F8D8
:103480007E7139460CF0F8FB2268306893797B40F6
:10349000937195F87D7139460CF0EEFB2268306827
:1034A00093797B40937195F87F51E2E6444B494C08
:1034B00093F80811DFF82881434F444EC1EBC10156
:1034C000C9B2002010F0B0F804F1200994F8F851C6
:1034D000002369B218F903208A4203F10C0300F0BB
:1034E0008384302BF6D10834A145EFD1FFF798BA89
:1034F0004821002010F098F8334E344DDFF8C0809A
:103500004FF00009D8F85830306809EB490403EB54
:10351000440409F1010994F8D67039460CF0ACFB6B
:103520002A68306893797B40937194F8D17039465A
:103530000CF0A2FB2A68306893797B40937194F871
:10354000D27039460CF098FB2A68306893797B403A
:10355000937194F8D37039460CF08EFB2A6830686A
:1035600093797B40937194F8D47039460CF084FBC6
:103570002A68306893797B40937194F8D54021464E
:103580000CF07AFB2A689379B9F10C0F83EA0403F3
:103590009371B7D1FFF744BA0020012110F044F82D
:1035A0000C4A094B92F89241186821460CF064FBD2
:1035B000064B1A68937963409371FFF731BA00BFE5
:1035C000F018002067666666A4440020A844002026
:1035D00000220020F83C0020444400207E440020CB
:1035E00050440020BA4CBB4FBB4E0C21002010F0C1
:1035F0001BF894F89051386829460CF03DFB32686E
:1036000093796B409371B4F89A0110F06FF8B4F8A5
:10361000960110F06BF8B4F8980110F067F894F880
:103620009151386829460CF027FB326893796B403A
:103630009371B4F89E0110F059F8B4F8A00110F09D
:1036400055F80120FFF7EDB9002001210FF0ECFF44
:103650009F4AA04B54791868A7E79D4C072100208A
:103660000FF0E2FFB4F8800110F040F8B4F88201E6
:1036700010F03CF894F88451964B294618680CF0E9
:10368000FBFA954B1A6893796B409371B4F88601F5
:1036900010F02CF80120FFF7C4B98D4C0621002052
:1036A0000FF0C2FFB4F8580110F020F8B4F85A0136
:1036B00010F01CF8B4F85C0110F018F80120FFF7C6
:1036C000B0B9042100200FF0AFFF814B9C68FFF7D9
:1036D00083BA502100200FF0A7FF7E4E7E4DDFF809
:1036E00014827E4F4FF0000AD8F85840306804EB3F
:1036F0008A040AF1010A94F8813003EB430307EBD3
:10370000830393F8389049460CF0B6FA2A6830687B
:10371000937989EA0303937194F8829049460CF0F7
:10372000ABFA2A683068937989EA0303937194F8B5
:10373000839049460CF0A0FA2A683068937989EAA8
:103740000303937194F8844021460CF095FA2A689B
:103750009379BAF1140F83EA04039371C4D1FFF78C
:103760005FB91A2100205E4F5A4E5B4D0FF05CFF8F
:1037700007F10B0817F8014B306821460CF07CFA72
:103780002A689379B84583EA04039371F2D1554FBF
:1037900007F1080817F8014F306821460CF06CFA61
:1037A0002A689379B84583EA04039371F2D14E4FA6
:1037B00007F1070817F8014F306821460CF05CFA52
:1037C0002A689379B84583EA04039371F2D1FFF72D
:1037D00027B906210020454F3E4E3F4D0FF024FFF4
:1037E00007F1040817F8014B306821460CF044FA41
:1037F0002A689379B84583EA04039371F2D157E5B7
:10380000344D354C032100200FF00EFF28681021A5
:103810000CF032FA22682868937983F010039371D0
:1038200004210CF029FA22682868937983F00403B4
:10383000937118210CF020FA2268937983F0180311
:1038400093710120FFF7EDB804210020284F214E8D
:10385000214D0FF0E9FE07F1040817F8014B30681D
:1038600021460CF009FA2A689379B84583EA0403E3
:103870009371F2D1FFF7D4B8164C174D03210020F5
:103880000FF0D2FE206800210CF0F6F9206801212B
:103890000CF0F2F92A682068937983F001039371A0
:1038A0000E210CF0E9F92A68937983F00E039371E5
:1038B0000120FFF7B6B8022100200FF0B5FE0D4B36
:1038C000B3F888000FF012FF0120FFF7AAB800BF7D
:1038D000F83C0020A4440020A844002080C3010834
:1038E00020E4010813E40108F3E301081CE60108E1
:1038F00014E60108F01800200DF048FC7A4BC3F8DC
:103900000C010FF0D3FE8421044600200FF08CFE42
:10391000A0B20FF0EBFE200C0FF0E8FE734B1D6918
:1039200004F18003AB428CBF2D1B802507F078FE8D
:103930002A46204602A90EF09FF900287FF770A8BA
:1039400000F1FF3802AB6A4E6A4D98440DF107074B
:1039500017F8014F306821460CF08EF92A689379E8
:10396000474583EA04039371F2D1FFF759B80D215B
:1039700000200FF059FE0EF043F85D4B5B4C0546FE
:10398000294618680CF078F95A4BA0881A68937980
:103990006B4093710FF0AAFE00200FF0A7FE246980
:1039A000A0B20FF0A3FE200C0FF0A0FE0EF000F866
:1039B0000446FFF711B9132100204F4F4C4E4D4DD7
:1039C0000FF032FE07F10B0817F8014B3068214663
:1039D0000CF052F92A689379474583EA04039371FE
:1039E000F2D100200FF082FE00200FF07FFE0020B9
:1039F0000FF07CFE5CE4414C3D4F3E4E1021002018
:103A00000FF012FE6579386829460CF035F93268F6
:103A100093796B409371A568A8B20FF067FE280CEC
:103A20000FF064FE94F89051386829460CF024F9A0
:103A3000326893796B409371B4F858010FF056FED9
:103A4000B4F85A010FF052FEB4F85C010FF04EFECC
:103A5000B4F880010FF04AFEB4F882010FF046FE80
:103A60000120FEF7DEBF08210020254F204E214D0A
:103A70000FF0DAFD07F1080817F8014F306821460A
:103A80000CF0FAF82A689379B84583EA0403937135
:103A9000F2D1FEF7C5BF194C154F164D022100207B
:103AA0000FF0C2FD94F8E461386831460CF0E4F898
:103AB0002A68386893797340937194F8E3412146FA
:103AC0000CF0DAF82A689379634093710120FEF7CD
:103AD000A8BF002001210FF0A7FD034B044A9B6DF6
:103AE00010681C7861E500BFF01800200404002075
:103AF000A4440020A844002020E40108F83C002051
:103B00007F3E0020DFF86C830B2100200FF08CFD3E
:103B1000B8F800000FF0EAFD00200FF0E7FDD8F83C
:103B20000430C3F3C0029200C3F3800042EA4000B5
:103B3000C3F340020243C3F3401042EAC00003F063
:103B4000100318430FF0D2FDB8F80820D8F80C3055
:103B500098F8101098F8114002F0080003F4475547
:103B6000054303F48040054303F40040054303F498
:103B70008030054303F40030054303F480200543FF
:103B800003F40020054303F48010284303F07A4334
:103B9000C1F3800112F0010F43EA000343EA01037D
:103BA0000CBF0025022512F0020F45EA03050CBFE9
:103BB0000021042112F0040F0CBF002310230D4339
:103BC00012F0400F45EA03050CBF0023202312F03A
:103BD000100F45EA03050CBF00234FF4007312F0E9
:103BE000200F45EA03050CBF00234FF4806312F455
:103BF000807F45EA03050CBF00234FF4006312F4F5
:103C0000007F45EA03050CBF00234FF4001312F4B4
:103C1000806F45EA03050CBF00234FF080631D430E
:103C2000002C00F01782002108F113080A46012039
:103C300018F8013F00FA03F32B4218BF00FA02F311
:103C400002F1010218BF19439442F1D188B20C0C61
:103C50000FF04CFD20460FF049FD7F4A7F4B92F854
:103C600008471868A1E47D4C7D4E072100200FF025
:103C7000DBFC2068E7210BF0FFFF336876499A7977
:103C80004D79206882F0E7029A7129460BF0F4FF23
:103C90003268206893796B40937100210BF0ECFF40
:103CA00004200FF023FD00200FF020FD0120FEF77F
:103CB000B8BE6C4F397801EB4101C9B200200FF05A
:103CC000B3FC3B78002B3EF4ABAEDFF88C81634E47
:103CD000634D4FF0000998F8A341306821460BF07E
:103CE000CBFF2A6893796340937198F8A43103EB72
:103CF000830303EB830303F2EE2080B20FF0F6FCA4
:103D00003B7809F101094B4508F10208E3D8FEF7B9
:103D100087BE514C514F524E042100200FF084FCBD
:103D200094F8DA51386829460BF0A6FF32683868F3
:103D300093796B40937194F8DB5129460BF09CFF0B
:103D4000326893796B409371B4F8DC010FF0CEFCCC
:103D50000120FEF766BE44480FF0F8FB0120FEF795
:103D600060BE122100200FF05FFC404B404C1B88CE
:103D7000B3F5806F94BF01260826A51D34F9020B08
:103D800090FBF6F080B20FF0B1FCA542F6D1394CB1
:103D9000B4F840000FF0AAFCB4F842000FF0A6FC03
:103DA000B4F844000FF0A2FCFFF77CBA32480FF0E1
:103DB000CDFB0120FEF735BE0020FEF732BE019B91
:103DC0000344019398F811309C42FFF67BA8009BB6
:103DD000002B3EF425AE9DF8041000200FF024FCCB
:103DE00000230093FFF767B8EDB2294638680BF05F
:103DF00043FF326893795D409571B4F8FA010FF092
:103E000075FC94F8FC51386829460BF035FF326890
:103E1000386893796B40937194F8FD5129460BF003
:103E20002BFF3268386893796B40937194F8FF5197
:103E300029460BF021FF3268386893796B40937103
:103E400094F8FE5129460BF017FF326893796B40C6
:103E50009371FFF748BB00BFF83C0020A44400204A
:103E6000A844002044440020381900200404002005
:103E700028190020F01800204C1900207D4E7E4D9E
:103E80009FED7E9ADFED7E8A0024C14603EB84031A
:103E900093ED080AB2EE048A20EE080A15F010FC31
:103EA00080F30800C7B2394630680BF0E5FE296898
:103EB000D8F858308A79574003EB84038F7193ED1B
:103EC0000B0A20EE090A15F0FBFB80F30800C7B2CD
:103ED000394630680BF0D0FE2968D8F858308A7916
:103EE000574003EB84038F7193ED0E0A20EE280AEE
:103EF00015F0E6FB80F30800C7B2394630680BF0D6
:103F0000BBFE2A68937901345F40032C977140F01F
:103F10008280072C4FF00409D8F858302DD0234464
:103F200030685F7839460BF0A7FE2968D8F858301A
:103F30008A7930687A4023448A71DF7A39460BF0F7
:103F40009BFE2968D8F858308A7930687A40234433
:103F50008A715F7D39460BF08FFE2A689379B9F13B
:103F60000A0F83EA070393713EF45AAD0134072C1C
:103F700009F10109D8F85830D1D193ED110A20EE9A
:103F8000080A15F09DFB80F30800C7B23946306877
:103F90000BF072FE2968D8F858308A7957408F7133
:103FA00093ED120A20EE080A15F08AFB80F3080050
:103FB000C7B2394630680BF05FFE2968D8F8583030
:103FC0008A7957408F7193F84C3000EE103AB8EE72
:103FD000400A15F075FB80F30800C7B23946306817
:103FE0000BF04AFE2A6893795F409771BEE7102F65
:103FF00032D00024DFF88C802646A146A246FEF788
:1040000011BFD6F8840000F30F0080B20FF06EFBF2
:104010000120FEF706BDD9F8583037E793ED110AB5
:1040200020EE080A15F04CFB80B20FF05FFBD8F8C9
:10403000583093ED120A20EE080A15F041FB80B2C9
:104040000FF054FBD8F8583093F84C000FF04EFBAB
:10405000FEF701BE2046FBE5DFF82880D8F8B04027
:10406000D8F8B4601FFA84FA1FFA86F9240C360CCB
:10407000FEF7D8BEA4440020A84400200000C84297
:1040800000007A44F01800202DE9F04FDFF8448357
:10409000BD49D8F80020BD4C2DED048B02F59C43A2
:1040A0000E7820338DB02360002E00F0A384B84B2F
:1040B000B84F1B68B84D9A42B84B009388BF06F1C1
:1040C000FF36B74B88BF0E700493009BB34E186841
:1040D000C20403D52B68DB0740F124863968D8F881
:1040E00000608B7A002B40F0318307044AD5D4F866
:1040F0009820A64FB21A002A44DB97F89C20DFF8DC
:10410000D8E291F80B809EF805C0DFF8D0E20132CA
:1041100002F00F023EF81C1087F89C2007EB020CFF
:1041200006F59C4E0EF1200E89B2C7F898E091FB7F
:10413000F8F207F19F018CF8A020AF3711F8012F9A
:104140001344B9429BB2F9D11BB2002BB8BF0F3355
:104150001B1100F10E86642BA8BF642307EE903A72
:104160009FED906ADFED906AF8EEE77A87EE867A47
:1041700067EE267AFCEEE77ACDED017ABDF80430E1
:104180008A4A1380C0050AD5894BDFF854929E42B3
:1041900099F8022000F21882002A40F01982854B1B
:1041A000DFF840820193844FB7F84E1107F5C470D1
:1041B0000BF08CFC8146002840F0D983D5F800A094
:1041C0001AF0006B04D07D4EB378002B00F0C78549
:1041D000019B1A7802F0040202F0FF03002A40F06B
:1041E0009881764E764A7749126802F57A720020F5
:1041F000C4F8B82001220870F270B270002B40F0B1
:10420000CA8398F800E0664A97F8E2A197F8E3C1FC
:10421000B7F898B1B7F89A6102F10800002332F9B3
:10422000021B9B085945C4BF63F07F03DBB2B14258
:10423000B8BF43F040039042F1D194F8C1205349F4
:104240009A4200F02085002281F8C22084F8C13013
:104250004E4ABEF1000F40F0C9802B68D90740F1EB
:10426000908182F8C3E0B9F1000F04D1019B1B7863
:10427000DB0700F1828694F8C230142B00F0C8806E
:10428000009B1B68504E03F00403002B40F0048198
:10429000D6F800B000230BF183080BF1D3092B6093
:1042A000012603E008F10408C14517D098F8002062
:1042B00098F801309A42F5D2414618F8010C0BF0FB
:1042C000C7FB0028EED018F8022C2B6806FA02F281
:1042D00008F104081343C1452B60E7D13B4B1B7821
:1042E000002B00F0BD822B68980700F1F880009B3E
:1042F0001B68D80500F1EE80354EDFF8EC80012018
:104300000AF0C6F82B685B0700F1178102200AF05B
:10431000BFF8B8F8001011F003011ABF01210846D8
:1043200001200BF0ADFF33689A0600F13682286851
:1043300010F4006F4FF4807000F0E1800AF0B8F8DC
:104340007B79082B00F0E1800E2B00F0DE80009BD3
:104350001B685E0510D597F81832002B00F0FB8023
:104360002B68190300F1FC8006F080F906F03CF997
:1043700006F0A4F80EF046FF012384F864310DB076
:10438000BDEC048BBDE8F08F80480020081A0020A7
:104390007C48002074480020FC1800207848002049
:1043A000804400200000C84200C07F4470190020F3
:1043B000404B4C0000190020F83C0020180400205D
:1043C0001C2A0020E924002048190020582200203F
:1043D000F4180020904700205C2100206C21002070
:1043E000844800202C0D0020F818002092F8C220EC
:1043F000142A7FF445AF5F2B00F0A685BAF1000FB9
:1044000006D094F8C160DFF808937D2E00F0D385C4
:10441000019B1B7803F0040303F0FF02002B7FF4E1
:104420002FAF94F8C160009BB9491B68572E00F06C
:10443000678713F00403DFF8FC9202D05A2E00F0D5
:10444000E4855D2E00F081875B2E00F0C2855E2E34
:1044500001F02980562E01F0C28098F8003043B157
:104460006F2E00F0EA85BAF1000F02D07E2E00F028
:10447000E485972E01F0A180A72E40F07E87A54904
:10448000009B0A781B6842F004020A7003F00403E0
:10449000A14E002B3FF4FCAE94F8C8309C49002B91
:1044A00000F0DF83019B1B785A0740F1DA83049BFD
:1044B000B3F90620B7F898319A4240F3D2832B68BB
:1044C00013F0010040F0CE83322281F8C800A1F839
:1044D000CC20C7E3914BDB78002B3FF40DAF904E1F
:1044E000336899077FF509AFDFF84C82B8F80030E0
:1044F000DA073FF50BAF012009F0DAFF06E709F014
:10450000C7FF7B79082B7FF41FAF402009F0C0FF65
:104510001DE7009A1268D2063FF563AEBBF1000FAB
:1045200004D0804EB278002A7FF45CAE0AF0205AA4
:10453000BAF1205F7FF455AE63E6012009F0A8FFD1
:10454000B8F8001088073FF5E6AE022009F0B0FF8A
:10455000B8F80010DFE6019B1B7858077FF504AF21
:10456000714B00223C201A700EF096FF00283FF499
:1045700003AF0FF039F83C200EF08EFF0028F8D181
:10458000FAE6019B1B785E077FF575AE92F829303D
:10459000002B3FF470AE614BDB78002B7FF46BAEE9
:1045A00092F8C3300133DBB2032B82F8C3307FF6BD
:1045B00062AEBCF1000F03D1B9F1000F7FF45BAE26
:1045C00011F078FB00F0DBBC12B9012289F802205F
:1045D000564B99F8217093F800B029680193012F88
:1045E00014BF032300230BF0040B029399F820203F
:1045F000DFF848814E4EDFF848A101F080635FFA92
:104600008BFB0393052A57D8DFE802F047405E2F63
:104610001803DAF800203368D288642101FB0233E2
:104620004FF48060002289F8202089F80320C9F81F
:10463000103009F02DFF99F82020E3E7012F40F01A
:1046400049863368D9F818209A4235D298F8003054
:1046500013B92B68D9072FD401990B78052223F0C1
:1046600002030B7089F82020CCE7019A137843F0FD
:104670000203137011F01EFBD9F81C203368134499
:104680000422C9F8183089F82020BBE7012F40F038
:104690000483052289F82020B4E7BBF1000F40F025
:1046A000F283039B4FF48060002B40F0048309F0F9
:1046B000EFFE0022C9F81020029B002B3FF473ADDF
:1046C00002980BF069FA6EE5012F04BF052389F803
:1046D0002030BBF1000F00F0E582D4F8B43004982C
:1046E000DB89038043808380DAF800103268D9F8D0
:1046F00014304988C1809A4200F22E83012F40F085
:104700009B87064B93F82020022302937AE700BF91
:10471000081A002080190020481900208448002031
:10472000F4180020180400204C4400200019002038
:104730001C2A002078480020F81800202C0D0020AA
:10474000E845002000007A4400C07F44013B0A7B1A
:10475000049931F813301AB1C3F53B6308339BB2A7
:104760001BB2A3F57A73B3F57A7FA8BF4FF47A73BF
:1047700023EAE37307EE903A1FED0E6A5FED0E6ACF
:10478000C34AF8EEE77A87EE867A67EE267AFCEE81
:10479000E77A17EE903A1380F4E4BE4B1B789B0740
:1047A00027D5BD4B1B78042B23D92868BB4E10F4AA
:1047B000007940F0D683B8F80020DFF8108302F0CB
:1047C00010039BB2002B40F0B9869A46410500F1D8
:1047D0008386930600F1FC8694F808312BB90E20ED
:1047E0000BF0DAF9012384F80831BAF1000F10D187
:1047F0009DE5B8F8003003F03003002B3FF497AD8F
:10480000102009F045FE202009F042FE002384F824
:104810000131A349286800230022C4F814210B8029
:10482000A4F80C31A4F81031C4F81831C4F84031A0
:104830004B80A4F80E31A4F81231C4F82C31C4F81E
:104840005431C4F81C21C4F83C21C4F84421C4F8F4
:104850002821C4F83021C4F85021C4F8582167E554
:104860000BF1D206DFF86892DFF8548202930BF561
:104870008D7B4FF0010A02E006365E452CD032787F
:1048800073789A42F8D2314616F8010C0BF0E0F832
:104890000028F1D03079B37896F803E000EB4001BE
:1048A00004EB8101013BD1F8D42003EB43034B44DB
:1048B0009342E1D098F80021C1F8D4300AFA00F010
:1048C000063622EA0000029B81F8D0E05E45C1F87E
:1048D000D83088F80001D2D1724B734AD3F800B0B7
:1048E000126894F829A0714E9FED719ADFED718ADC
:1048F00002924FF00008D946736883B393F800B072
:10490000BBF1000F2BD0B168C1EB090100290BDB13
:1049100094F80001012101FA08F120EA010109F5EA
:10492000FA7084F80011B060BAF1000F17D0317836
:1049300058780431C9B2002840F0F981049AB7F8D8
:10494000960132F9111000F1C80E714540F3BB8297
:1049500094F8001141FA08F1C90740F14C8308F1BD
:104960000108B8F1040F06F10C06C5D1BBE4009BA9
:104970001B6813F0100F019B00F0A3811B7803F05C
:104980000403DBB24C4A4D4E002111700022F2703C
:10499000002B3FF436AC009B1B68D8067FF531AC8A
:1049A0003C4B1B7803F0100303F0FF06002B7FF451
:1049B00028AC98F800E0DFF81CA1BEF1000F00F071
:1049C0000E8597F8E431B9F1000F40F0D68543B178
:1049D000344AD4F8BC301268394E9B1A002BC0F20E
:1049E0006D8610200BF0D8F8012384F8C03098F8B9
:1049F00000E008E4334FDFF8E0B0A1460EE03A688B
:104A0000DBF80030515D3048DFF8B8A09847032D3F
:104A10003CD8E8B904EB45050136A88094F8283065
:104A2000F5B253B93A68284B927E1B78D11C994253
:104A3000BCBF131DDBB289F828309D424ED2072D32
:104A4000DDD9DBF8003020482946984780B2E1E7FD
:104A5000DAF8003005F1100203EB820E33F8221071
:104A6000BEF802204FF47A73401A03FB00F0521A8A
:104A700040F6C90390FBF2F000F57A70984200F31B
:104A80001D8140F2EE239842B8BF184680B2C1E7BC
:104A9000701900208019002081190020FC180020C6
:104AA000D02400201C2A00207C190020D81A0020C5
:104AB00000007A440000C842E924002018040020C5
:104AC000081A00207448002044440020F8180020F0
:104AD00058C501082C0D0020300D00209A46C24B0D
:104AE0000093C24A1B681268039242F20101194006
:104AF000002900F01081BE4E94F82A30727832708E
:104B000084F82930002B00F00B81B94E337883F004
:104B1000010C94F82C20B748B74BD7F800B0099790
:104B20001546A0FB05E0400800EB4000281AC0B283
:104B3000079003981A78B14B069500F596700F25EB
:104B4000574684F82B509246AD4E049300250590AD
:104B5000CDF804C002911A4687BB9BF81A70F81C66
:104B60005045C0F282815046854284F828A05746BD
:104B700027DA019B002B00F05781A249BBF816E011
:104B800031F8150086454FEA450904D8BBF818E00E
:104B9000864580F0F4809C48039950F825008842AF
:104BA00040F24F8132F80900029B002B40F0EF8069
:104BB00022F8090001350636002FCED0384685424E
:104BC000D7DB94F82B30914D0F2B0CBF0123002322
:104BD000BA4684F89430099F03D12B68590140F1FB
:104BE00082838B49814B8A6818684B68804EC86005
:104BF000821A9A4284BF002381F821307E4BDFF86D
:104C0000249201950120707030701E783B685246E6
:104C1000B24616464D464FF0000B9946AEB999F88C
:104C20001A30D91C5145C0F2268153469B4584F861
:104C300028A056465FFA8BF00CDA11F0D3FA0BF18C
:104C4000010B25F8020F002EE9D033469B455FFA91
:104C50008BF0F2DB019D069B013384F82C30FFF7CB
:104C600034BA2B68DB0340D594F8CE20694B2AB9BF
:104C700093F8C62012B93222A3F8CC20012384F87D
:104C8000CE30FFF705BB91F8C220F92A3FF6DEAA25
:104C9000013281F8C220FFF7D9BA10F0CFFD99F8A0
:104CA0002020AFE4336847F230530322C9F81C30A8
:104CB00089F82020A6E409F0FBFBFAE440F6CA00DC
:104CC000A8E61A7802F0040202F0FF03002A3FF47B
:104CD00059AE2A6816017FF555AE454EB278002AC6
:104CE00040F038844C490A7050E694F8C630494A7E
:104CF000002B3FF4CDAA019B1B7803F0040303F0C3
:104D0000FF01002B7FF4C4AA012382F8C61082F8A9
:104D1000C730FFF7BDBA94F82930002B7FF4F5AE09
:104D20009C46F6E610F0C6FF3068FFF7D7B90128B9
:104D300000F07A8394F80031012101FA08F108F1BA
:104D400001080B43B8F1040F84F8003106F10C069A
:104D50007FF4D2ADFFF7C7BA02230293A3E70EF0A8
:104D6000DBFB2D4B01280CBF187083F80090FFF778
:104D70002FBA0023FFF704BA01984FEA45092249E8
:104D8000059B41F82530029B002B3FF411AF079B98
:104D900094F878C009EB050E9E4404EB4E0EAEF875
:104DA0003000BCF1000F08D1069B022B7FF600AF4C
:104DB000184B4FF0010183F87810B6F800C07088E6
:104DC000B6F804E0154B60441EFA80FE1FFA8EFE12
:104DD0000FFA8EFC83FB0C30114BA0EBEC7023F828
:104DE00009E080B2E4E600BF784800201C2A0020D9
:104DF00018040020ABAAAAAA444400208044002042
:104E0000381A00200C1A0020701B0020FC1800200B
:104E100084480020081A0020E924002056555555E2
:104E2000841A00207E440020BBF816000028A3D07E
:104E3000C948039950F8250088424FEA45093FF6D2
:104E4000B1AEE8B2089211F0CDF9032D089A18DC42
:104E5000C24B93F82BE0012303FA05FCBF4B2EEA6B
:104E60000C0E80B283F82BE09EE60437FFB284F884
:104E700028703846A3E61E1DF6B284F82860334633
:104E8000E4E680B290E6B4F8B010D4F8B4000AF0CA
:104E90001DFE012800F0B782039B2BB1DAF8003029
:104EA0001B79002B40F09082012F3FF405AC336852
:104EB000D9F810209A42C0F03D82A94B012283F814
:104EC0002020FFF79FBBC838814267DA94F80011B1
:104ED0009B7841FA08F1CA073FF541AD5B4208EE05
:104EE000103A01200AF0A0FE0BF1FF33132B3FF61E
:104EF00021AF01A252F823F0A95200084D52000838
:104F000079520008C550000801520008CD51000830
:104F100019520008995100082F5100080751000844
:104F200071510008354D0008C5500008E9500008CF
:104F3000CD51000819520008995100089D500008F1
:104F4000755000084D500008019B1B7803F00403C6
:104F500003F0FF06002B00F0608210F0ABFEFFF7BD
:104F60004DBAB8F80030DE0640F1168394F80831E7
:104F7000002B7FF4DDA99A4631E410F07DFC94F813
:104F8000C220764B142A7FF47BA998F80020002ACF
:104F90003FF43EAA93F8C130FFF72DBA94F80031E0
:104FA000012101FA08F123EA010309F5FA7184F8F5
:104FB0000031B160D3E4019B1A786A4B02F004021D
:104FC00002F0FF0B002A00F0C28110F073FEFFF721
:104FD0001FBA0122022687F8082709F0A9FA09F06A
:104FE00073FB30460AF020FE009B5F4E1B6803F007
:104FF0000403FFF74AB99B7808EE103A002B3FF400
:1050000070AF02200AF010FE6EE791F8C60000288B
:1050100040F00A8391F8C83083F0010381F8C8306A
:10502000002B40F0F7820D200AF0B6FDD9F80030D1
:105030004D4E03F00403FFF728B910F01DFC009B50
:10504000494E1B6803F00403FFF71FB9474B1B6869
:105050001978022900F0D183597D18EE102A1144E5
:10506000C829A8BFC82121EAE171597514200AF0A6
:1050700065FD5FE63D4B1B681978022900F0EA8365
:10508000D97A18EE102A1144C829A8BFC82121EAEC
:10509000E171D97213200AF051FD4BE6334B1B68C6
:1050A0001978022900F02D83597818EE102A11443E
:1050B000C829A8BFC82121EAE171597012200AF05D
:1050C0003DFD37E6029A18EE103A517919446429E9
:1050D000A8BF642121EAE17151710D200AF02EFD73
:1050E000BBF10D0F3FF426AE029A18EE103A11797B
:1050F00019446429A8BF642121EAE17111710E20CD
:105100000AF01CFD16E6194B1B681978022900F0FD
:10511000DD82597B18EE102A1144C829A8BFC82186
:1051200021EAE17159730A200AF008FD02E60F4BEB
:105130001B681978022900F0FF82D97818EE102A2E
:105140001144C829A8BFC82121EAE171D9700920FA
:105150000AF0F4FCEEE500BF701B0020081A0020E6
:105160008448002000190020481900203C440020F9
:10517000CE4B1B681978022900F01E83D97D18EEEA
:10518000102A1144C829A8BFC82121EAE171D975A4
:105190000B200AF0D3FCCDE5C44B18680178022936
:1051A00000F04E82817D039318EE103A1944C8290D
:1051B000A8BFC82121EAE171817511200AF0BEFC67
:1051C000039BBBF1110F7FF442AFB3E5B74B1868F7
:1051D0000178022900F0D4828178039318EE103A06
:1051E0001944C829A8BFC82121EAE17181700F20A4
:1051F0000AF0A4FC039BBBF10F0F7FF450AF99E5BD
:10520000029A18EE103A9179194481F308019171CC
:1052100005200AF093FC8DE5A44B1868017802295B
:1052200000F02A82017B039318EE103A1944C82932
:10523000A8BFC82121EAE171017310200AF07EFCA9
:10524000039BBBF1100F7FF416AF73E5029818EEC5
:10525000103A90F801B09B44BBF1640FA8BF4FF027
:10526000640B2BEAEB7B80F801B00AF0D3FB5946C4
:1052700002200AF063FC5DE502988D4B90F803B0C4
:1052800018EE101A8B44BBF1640FA8BF4FF0640BEB
:105290002BEAEB7B80F803B019680AF05FFB5946F4
:1052A00003200AF04BFC45E5029818EE103A90F8FE
:1052B00000B09B44BBF1FA0FA8BF4FF0FA0B2BEAEA
:1052C000EB7B80F800B00AF0A5FB594601200AF0FC
:1052D00035FC2FE5774AD9F81C1012680A44C9F842
:1052E0001820FFF7E9B9744A724BD1681B689360C4
:1052F0005B1AC82B7FF6AFAC012382F82130AAE4F9
:105300004FF47A721806A1F8C4206C4E7FF5BEA83F
:105310006B4A127891077FF5B9A86A4A1278042A75
:105320007FF6B4A805F000FF3368674E03F004036E
:10533000FEF7ABBF10F082FA5F49032240F6B833A4
:1053400081F82020CB61FFF75DB9012643E60B20F1
:1053500002930AF021FC029B89F8C2B01B7813F07B
:10536000040F009B1B687EF48DAF5B077FF575A86B
:1053700098F80030002B7FF476A80023BB2E0B9307
:1053800000F01881B72E00F03681BE2E00F0378174
:10539000BD2E7EF475AF4FF6FE714B4E3268B2F8FB
:1053A00060E0B2F8620071440344A2F86230A2F8EF
:1053B000601009F017FB009B1B68002203F0040338
:1053C00084F8C220FEF761BF10F038FA03224FF4D0
:1053D0007A7389F82020C9F81C30FFF713B9B9F1A6
:1053E000000F3FF4FEAA94F8C0E0DFF8E8B0BEF189
:1053F000000F3EF408AF0AF0B9FB9AF800E08BF812
:10540000C060FEF700BFDAF800203368D28864215C
:1054100001FB0233C9F810303EE50B200AF0BCFB5B
:1054200084F8C260FEF7F4BF049A32F91100B0F5B7
:10543000617FC0F2DE8040F633018142A8BF0146A1
:10544000A1F56171BBF10C0F7FF474AC1F4A93F8A6
:1054500002B010784FF4966393FBFBFB91FBFBF1DA
:105460005FFA81FB58453FF465ACBBF1030F8ABF7F
:1054700002235B461946C3EBC303154A07EB4303FC
:1054800003F20A731360114B98BF5946197009F063
:10549000F1F859460C200AF051FB0BF10100C0B2A3
:1054A0000AF0C2FB46E40222032694E53C440020B5
:1054B000384400201C2A002084480020784800201E
:1054C000801900208119002048190020F84400208C
:1054D0007C190020081A0020D548D4F80411B0F92E
:1054E00000304989D34E002BB8BF5B428B42BFF6D8
:1054F00070A9B0F90230002BB8BF5B4299427FF728
:1055000068A992063FF568A9202008F0D1FFCA4A91
:10551000CA4811460368406841F8040F10461360FA
:1055200005F0E0FE012386F8013194F808314FF0D0
:10553000010A002B7FF46DA9FFF751B9102008F084
:10554000A7FF4FF0010A84F801913068B8F80020F5
:10555000FFF73CB9BA49D4F8B82009688A42BFF4C9
:1055600015AA02930DF0D8FF029B00287FF40EAA23
:10557000B44AB0701070FFF709BA002B41D194F80B
:10558000C030AC4E002B3EF43EAE0AF0EFFA0023E2
:1055900086F8C030FEF735BE102008F089FF2020C5
:1055A00008F076FFA849081F05F09CFE022384F846
:1055B0000131BAE719460223EFE6009BA34E1B68B0
:1055C0004FF4C87203F00403A4F8CA20FEF75DBECE
:1055D000202008F05DFF002384F80131A5E709F0E1
:1055E00001FA98F80030002B7FF4C7AE0B93FEF75A
:1055F00047BE002126E719464FF6FE73CDE602218D
:10560000CBE68F4A12684FF47A7101FB0323C4F88A
:10561000BC30B4E70C200AF0BFFAD9F800308B4E4A
:1056200003F00403FEF731BE012081F8C62081F8A3
:10563000C700864EFEF729BE02230293FFF740B84B
:10564000B8EEC87AD0ED0F7A87EE090A30EE270A55
:10565000B5EEC00AF1EE10FA2AD4B4EE680AF1EE03
:1056600010FAC8BFB0EE680A80ED0F0A112003934C
:105670000AF04CFA039BA4E5B8EEC87AD0ED0C7A98
:1056800087EE280A30EE270AB5EEC00AF1EE10FACE
:1056900011D4B4EE680AF1EE10FAC8BFB0EE680A91
:1056A00080ED0C0A102003930AF030FA039BC8E542
:1056B0009FED670AD8E79FED660AF1E710F0FAFA66
:1056C00086F8C0909AF800E0FEF79DBDB8EEC88A53
:1056D000D3ED0D7A88EE280A30EE270AB5EEC00A1F
:1056E000F1EE10FA43D4B4EE680AF1EE10FAC8BF36
:1056F000B0EE680A83ED0D0A0A200AF007FAFFF7F8
:1057000019BBB8EEC88AD3ED087A88EE280A30EEC5
:10571000270AB5EEC00AF1EE10FA2BD4B4EE680AEF
:10572000F1EE10FAC8BFB0EE680A83ED080A122045
:105730000AF0ECF9FFF7FEBAB8EEC88AD3ED0A7AA0
:1057400088EE280A30EE270AB5EEC00AF1EE10FA0C
:1057500013D4B4EE680AF1EE10FAC8BFB0EE680ACE
:1057600083ED0A0A09200AF0D1F9FFF7E3BA9FEDA9
:10577000380ABFE79FED360AD7E79FED350AEFE716
:10578000B8EEC87AD0ED097A87EE280A30EE270AFB
:10579000B5EEC00AF1EE10FA29D4B4EE680AF1EEC3
:1057A00010FAC8BFB0EE680A80ED090A0F20039313
:1057B0000AF0ACF9039B1EE5B8EEC88AD3ED107A67
:1057C00088EE090A30EE270AB5EEC00AF1EE10FAAB
:1057D00010D4B4EE680AF1EE10FAC8BFB0EE680A51
:1057E00083ED100A0B200AF091F9FFF7A3BA9FEDA1
:1057F000180AD9E79FED160AF2E7B8EEC88AD3ED8A
:105800000E7A88EE090A30EE270AB5EEC00AF1EEEC
:1058100010FA3AD4B4EE680AF1EE10FAC8BFB0EE4E
:10582000680A83ED0E0A14200AF070F9FFF782BAB5
:10583000C0240020081A0020A0190020841900208C
:105840001C2A0020E92400209C190020481900206F
:1058500000000000B8EEC88AD3ED0B7A88EE280A63
:1058600030EE270AB5EEC00AF1EE10FA10D4B4EE0D
:10587000680AF1EE10FAC8BFB0EE680A83ED0B0AB1
:1058800013200AF043F9FFF755BA1FED0F0AC8E7D6
:105890001FED110AF2E700BF2DE9F04F2DED028B4D
:1058A000AF4B1B7895B0002B40F0AB809FEDAD8ADD
:1058B000DFEDAD8ADFF8ECB29946DBF80000002896
:1058C00070D0DFF8E4A2A94DA94CAA49AA4F0490D0
:1058D00003AB0022CAF800301423C4F800B02860DB
:1058E000A84603918DF815208DF814300BF084FC38
:1058F00000284DD028680BF07BFC236893F84820E3
:105900000146DAB924286FD09C4ED8F800003378CD
:1059100003F0040303F0FF02002BE7D1232900F07A
:105920002283974B1B681B788B42DFD105F0E8FD83
:10593000944B954A1A6072B60CF0FAFA012A4BD0D1
:10594000022A56D0032A00F0CB81042A00F0F88204
:10595000052A33D0062A3DD193F84900FCF74AFFC7
:10596000002800F0F9812368DAF800009F79804E62
:1059700039460AF081F9236828689A797A409A7141
:105980000268526A0AB190473368002283F84820BF
:10599000DAF800000AF062F9774B93F82030002B18
:1059A00040F0B18109F10109B9F1020F0BF14C0B83
:1059B00083D115B0BDEC028BBDE8F08F1A79587910
:1059C000904200F2AA829A798A4200F0078300226C
:1059D00083F84820286889E74D280CBF022200225E
:1059E00083F84820286881E7012283F84820286846
:1059F0007CE73C280CBF0322002283F8482028685B
:105A000074E7624C20680028D3D0DFF88881604DAD
:105A10000AF024F9D8F800000BF0EEFB0028C8D0FB
:105A20005C4B18680BF0E4FB092801461DD03F28A9
:105A30001BD02B68002B40F08580042800F08B825F
:105A40000C2800F0CE807F29E4D0A1F12002D2B250
:105A50005E2ADFD80BB92029DCD04F4A2068D15408
:105A600001332B600AF008F9D4E7DFF840B12E6863
:105A70004FF000090BF5F87A4F4636B13246DBF8A5
:105A80000010454816F072FA10B9D946002F57D0C9
:105A90000BF1100BD345F0D1002F00F09480396842
:105AA000D9F800208B5D12F806E09E4501EB060058
:105AB00002EB060140F08780DFF8DCA006F1FF3E34
:105AC000D64432460BB92D2A72D90EF8013F013265
:105AD0002A6010F8013F11F801CF9C45F2D0002A4E
